:0300000002278B49
:0C278B00787FE4F6D8FD75812102143738
:100003002A00493A00513A00200020203F002532BF
:1000130064002530346C78004F4B21000000000051
:1000230000000000000000000000000000000000CD
:10003300000000000000000000000000000202FABF
:10004300FAAAAAFFFFAAAAFAFA02020000427272EF
:100053003A7A424B5B52626213776600203C1CFF84
:10006300FFB0B424243F3FE4E4242420020203FF2E
:10007300FF0001051D59C1FF7F010101000000F8C8
:10008300F8484C4F4B4A4848F8F80000000000FF7E
:10009300FF44444444444444FFFF0000202424E438
:1000A300E42424243010FFFF10F0F000081C1F0B81
:1000B3000C0D4F6E341C0F23607F3F0080C060F82F
:1000C300FF070200FFFFE0703C1C08000000007FF8
:1000D3007F0406033F7F4040407878000000000023
:1000E300000000000000000000000000000000000D
:1000F30000000000000000000000000000000000FD
:1001030000000000000000000000000000000000EC
:1001130000000000000000000000000010218670B5
:10012300007E4A4A4A4A4A7E0000000002FE01401D
:100133007F41417F41417F41417F40000000FC04FA
:100143002424FCA5A6A4FC242424040080601F808E
:100153008042462A12122A2642C04000080808FF9D
:100163008848009848280A2C48D808000242817F12
:100173000000404242427E424242400000504F4A09
:1001830048FF48484800FC0000FF000000003F0112
:1001930001FF21613F000F40807F000000908CA48D
:1001A300A4A4A5A6A4A4A4A4948C04000080402025
:1001B30018070000003F404040700000000474D462
:1001C300FFD47404100CB744B40C04000042437A07
:1001D3004342437E4B4B4A4A424301000808080806
:1001E3000808F94A4C4848C808080800404020104D
:1001F3000C0300002040403F0000000000202C249E
:100203006474ADA6E43424242C24000000242425A3
:1002130015150DFE040D171424642400000000F8C6
:1002230048484C4B4A484848F8000000000000FF8B
:100233004444444444444444FF000000202424E450
:10024300242424201010FF1010F00000081C0B08B9
:100253000C054E24100C0320403F0000080808FF43
:100263008848009848280A2C48D808000242817F11
:100273000000404242427E424242400000504F4A08
:1002830048FF48484800FC0000FF000000003F0111
:1002930001FF21613F000F40807F00000807FAAA99
:1002A300AEAAAAA8ACABAAFE0A02020008088B6A8F
:1002B3001E0A0A0A0AFE0A0B08080800106001C693
:1002C3003000101010FF1010101000000404FE0185
:1002D300004161514D43414151E101004041CE0490
:1002E300008040BE828282BEC040400000007F206A
:1002F300908040432C10102C43C0400020212EE45A
:10030300000020202020FF20202020000000007F6C
:10031300201008000000FF00000000000000F84863
:10032300484848FF48484848F800000000000F04C8
:100333000404043F444444444F407000000002025C
:10034300020202E2120A060200800000010101011A
:100353000141817F010101010101010000202022EF
:1003630022E2222222E22222222020000040201028
:100373000C030000003F4040404070004020F80F55
:1003830082601E1410FF1010101000000000FF0008
:100393000101010101FF0101010101000000000051
:1003A3007E4848484848484848CC080000040404AC
:1003B3000404040404244644201F0000849494FF8E
:1003C300949480242424FC1213120000201806FFA6
:1003D300021C0A0202023F41414171001010D0FE8B
:1003E300509000101010D0FE10101000080601FFEE
:1003F300000110080443807F000000009088A7A23A
:10040300A6BAA2F8A7A2A6BAA28280000004040496
:10041300040C340444847F0404040000000000003E
:1004230000000000002F0000000007000700001478
:100433007F147F1400242A7F2A1200626408132386
:1004430000364955225000000503000000001C221D
:100453004100000041221C000014083E081400085B
:10046300083E0808000000A060000008080808080B
:10047300000060600000002010080402003E5149A3
:10048300453E0000427F4000004261514946002141
:1004930041454B31001814127F100027454545395B
:1004A300003C4A49493000017109050300364949B6
:1004B300493600064949291E00003636000000006F
:1004C30056360000000814224100001414141414BA
:1004D3000000412214080002015109060032495963
:1004E300513E007C1211127C007F49494936003E7F
:1004F30041414122007F4141221C007F494949413A
:10050300007F09090901003E4149497A007F080833
:10051300087F0000417F4100002040413F01007FF0
:1005230008142241007F40404040007F020C027FBC
:10053300007F0408107F003E4141413E007F0909CE
:100543000906003E4151215E007F091929460046F4
:10055300494949310001017F0101003F4040403FCB
:10056300001F2040201F003F4038403F0063140815
:1005730014630007087008070061514945430000F0
:100583007F41410000552A552A55000041417F0013
:100593000004020102040040404040400000010208
:1005A3000400002054545478007F484444380038F1
:1005B3004444442000384444487F00385454541879
:1005C30000087E0901020018A4A4A47C007F08048B
:1005D30004780000447D4000004080847D00007F5B
:1005E300102844000000417F4000007C0418047878
:1005F300007C0804047800384444443800FC242474
:1006030024180018242418FC007C0804040800485B
:100613005454542000043F444020003C4040207C7C
:10062300001C2040201C003C4030403C004428106B
:100633002844001CA0A0A07C004464544C4414141F
:100643001414141400000000000000000000000057
:1006530000000000000000F800000000000000336C
:100663003000000000100C06100C06000000000013
:100673000000000040C07840C0784000043F0404FC
:100683003F040400007088FC08300000001820FFBD
:10069300211E0000F008F000E018000000211C03F8
:1006A3001E211E0000F00888700000001E21232474
:1006B3001927211010160E00000000000000000092
:1006C30000000000000000E0180402000000000722
:1006D3001820400000020418E00000000040201829
:1006E30007000000404080F0804040000202010FFC
:1006F30001020200000000F0000000000101011FE0
:1007030001010100000000000000000080B0700043
:1007130000000000000000000000000000010101D3
:100723000101010100000000000000000030300062
:10073300000000000000000080601804006018063C
:100743000100000000E010080810E000000F102076
:1007530020100F00001010F8000000000020203FC0
:10076300202000000070080808887000003028244A
:1007730022213000003008888848300000182020EB
:1007830020110E000000C02010F800000007042410
:10079300243F240000F80888880808000019212055
:1007A30020110E0000E0108888180000000F1120AF
:1007B30020110E0000380808C83808000000003F68
:1007C300000000000070880808887000001C2221C7
:1007D30021221C0000E010080810E0000000312274
:1007E30022110F00000000C0C00000000000003014
:1007F3003000000000000080000000000000806066
:1008030000000000000080402010080000010204E6
:1008130008102000404040404040400004040404CD
:100823000404040000081020408000000020100889
:1008330004020100007048080808F00000000030BE
:1008430036010000C030C828E810E000071827244C
:1008530023140B000000C038E0000000203C2302FA
:100863000227382008F8888888700000203F20205D
:1008730020110E00C030080808083800071820208F
:100883002010080008F808080810E000203F202086
:1008930020100F0008F88888E8081000203F202067
:1008A3002320180008F88888E8081000203F20005B
:1008B30003000000C0300808083800000718202093
:1008C300221E020008F808000008F808203F210152
:1008D30001213F20000808F8080800000020203FFD
:1008E3002020000000000808F8080800C08080806D
:1008F3007F00000008F888C028180800203F200166
:100903002638200008F8080000000000203F2020BF
:100913002020300008F8F800F8F80800203F003FD6
:10092300003F200008F830C00008F808203F2000EE
:1009330007183F00E01008080810E0000F102020FF
:1009430020100F0008F808080808F000203F2101D4
:1009530001010000E01008080810E0000F1824242B
:1009630038504F0008F8888888887000203F20009E
:10097300030C302000708808080838000038202154
:1009830021221C00180808F8080818000000203F5E
:100993002000000008F808000008F808001F2020C5
:1009A30020201F000878880000C838080000073896
:1009B3000E010000F80800F80008F800033C0700E7
:1009C300073C0300081868808068180820302C034F
:1009D300032C30200838C800C83808000000203F26
:1009E3002000000010080808C83808002038262115
:1009F30020201800000000FE020202000000007F19
:100A030040404000000C30C0000000000000000126
:100A13000638C00000020202FE0000000040404011
:100A23007F00000000000402020204000000000036
:100A330000000000000000000000000080808080B3
:100A4300808080800002020400000000000000009B
:100A53000000000000008080808000000019242234
:100A630022223F2008F8008080000000003F112070
:100A730020110E000000008080800000000E112075
:100A830020201100000000808088F800000E112053
:100A930020103F200000808080800000001F222261
:100AA30022221300008080F0888888180020203FCD
:100AB300202000000000808080808000006B9494E0
:100AC3009493600008F8008080800000203F21009C
:100AD30000203F2000809898000000000020203F65
:100AE30020200000000000809898000000C0808053
:100AF300807F000008F8000080808000203F2402EF
:100B03002D302000000808F8000000000020203FDE
:100B1300202000008080808080808000203F200093
:100B23003F20003F8080008080800000203F210024
:100B330000203F200000808080800000001F2020D4
:100B430020201F00808000808000000080FFA12003
:100B530020110E000000008080808000000E112014
:100B630020A0FF80808080008080800020203F21A3
:100B73002000010000008080808080000033242456
:100B830024241900008080E0808000000000001F02
:100B9300202000008080000000808000001F2020B3
:100BA30020103F20808080000080808000010E3074
:100BB3000806010080800080008080800F300C03D5
:100BC3000C300F0000808000808080000020312ED8
:100BD3000E312000808080000080808080818E70B4
:100BE3001806010000808080808080000021302C66
:100BF3002221300000000000807C0202000000007F
:100C0300003F404000000000FF0000000000000023
:100C1300FF0000000002027C800000000040403F13
:100C230000000000000601010202040400000000AD
:100C330000000000000000000000000000000000B1
:100C430000000000000000000000000000000000A1
:100C53000000000000000000000000000000000091
:100C63000000000000008000404000202010101011
:100C730010101010101010100020204000400080B1
:100C83000000000000000000000000000000000061
:100C93000000000000000000000000000000000051
:100CA3000000000000000000000000000000000041
:100CB3000000000000000000000000000000000031
:100CC3000000000000000000000000000000000021
:100CD3000000000000000000000000000080400051
:100CE30010080002000100000000000000000000E6
:100CF3000000008000000000000000000000000071
:100D03000102000408001020800000000000000021
:100D130000000000000000000000000000000000D0
:100D230000000000000000000000000000000000C0
:100D33000000000000000000000080C00000C04070
:100D43004040C000004040C040400000C040404020
:100D530040C00000000000000080200C02000000E2
:100D630000000000008080404040404080000000C0
:100D7300189EFF8808C84828282828282808C00063
:100D830000000000000000000000041080000010BC
:100D93001010101010F00000F010101010101000C0
:100DA3000000F01010101010000000000000000000
:100DB3000000000000E0382C262321FF00008F08EC
:100DC3000808F800000000FF00000000FF0000001A
:100DD30000C1000000000000001F00000000000030
:100DE300000000007FF9880808080808FFFF0C06C8
:100DF30003E1FF070030494949494949494930005E
:100E030000000000000000000000000091000080CE
:100E13008282828282FF0000FF8484848484FC00B7
:100E23000000878484848484FC00000000000000A8
:100E330000000000000000000000000000000101AD
:100E43000101010000010101010100000101010193
:100E53000101000000000000000F4000000000003E
:100E63000000000000101113131313191918181898
:100E73007CFF01001080084A497FFF2424241F00BF
:100E83000000000000000000000000401800000007
:100E9300000000000000000000000000000000004F
:100EA300000000000000000000000000000000003F
:100EB300000000000000000000000000000000002F
:100EC300000000000000000000000000000000001F
:100ED300000000000000000000000100007040005E
:100EE30000000000000000008000000080808000FF
:100EF300000F9C80800000008080810300000000C0
:100F030000000000000000806008020000000000F4
:100F130000000000000000000000000000000000CE
:100F230000000000000000000000000000000000BE
:100F330000000000000000000000000000000000AE
:100F4300000000000000000000000000000000009E
:100F5300000000000000000000000000000000008E
:100F630002000808080020000F00800003020F00A1
:100F730000000F080F0000000B0A0E000080004065
:100F8300000008080000010000000000000000004D
:100F9300000000000000000000000000000000004E
:100FA300000000000000000000000000000000003E
:100FB300000000000000000000000000000000002E
:100FC300000000000000000000000000000000001E
:100FD300000000000000000000000000000000000E
:100FE30000000000000000000000000001020202F7
:100FF30000020002020202000001000000000000E3
:1010030000000000000000000000000000000000DD
:1010130000000000000000000000000000000000CD
:1010230000000000000000000000000000000000BD
:10103300000000000003050911FF118905C300E04A
:1010430000F000F8000000000000004428FF11AA8F
:101053004400000000000000000000000000000049
:10106300000000000000000000000000000000007D
:10107300000000000000000000000000000000006D
:1010830000000000000000000000000000008301D9
:101093003844829292740183000000000000007CB7
:1010A30044FF017D7D7D7D017D7D7D7D017D7D7D98
:1010B3007D01FF00000000000001000100010001AC
:1010C3000001000100000000000000000001010019
:1010D300000000000000000000000000000000000D
:1010E30000000000000000000000000000000000FD
:1010F30000000000000000000000000000000000ED
:1011030000000000000000000000000000000101DA
:1011130000000000000001010000000000000000CA
:1011230000010101010101010101010101010101AD
:1011330001010100000000000000000000000000A9
:10114300000000000000000000000000000000009C
:10115300000000F80808080808080800F81860806C
:10116300000000806018F80000002020F800000054
:10117300000000E0100808080810E000000020202C
:10118300F80000000000000000000000000808084C
:101193000808886818000000000000000000000034
:1011A300000000000000000000000000000000003C
:1011B300000000000000000000000000000000002C
:1011C300000000000000000000000000000000001C
:1011D3000000007F01010101010100007F00000107
:1011E3000618060100007F00000040407F404000D9
:1011F3000000001F2040404040201F0000004040EE
:101203007F4040000000000060000000000000601C
:1012130018060100000000000000000000000000AC
:1012230000000000000000000000000000000000BB
:1012330000000000000000000000000000000000AB
:10124300000000000000000000000000000000009B
:1012530000000000000000000040202020C000002B
:10126300E0202020E000000040E0000000006020BB
:101273002020E00000000000E0202020E00000002B
:10128300000040202020C0000040202020C000009B
:10129300000000000000000000000000000000004B
:1012A300000000000000000000000000000000003B
:1012B300000000000000000000000000000000002B
:1012C300000000000000000000000000000000001B
:1012D3000000000000000000000C0A0A090C0000D6
:1012E3000F0808080F000000080F080000000C0892
:1012F30009090E00000C00000F0909090F00000C7A
:1013030000000C0A0A090C00000C0A0A090C000070
:1013130000000000000000000000000000000000CA
:1013230000000000000000000000000000000000BA
:1013330000000000000000000000000000000000AA
:10134300000000000000000000000000000000009A
:10135300000000000000000000000000000000008A
:10136300000000000000000000000000000000007A
:10137300808080808080808000000000000000006A
:10138300000000000000000000000000000000005A
:10139300000000000000000000000000000000004A
:1013A300000000000000000000000000000000003A
:1013B30000000000007F030C300C037F0000385452
:1013C300545800007C04047800003C40407C00003A
:1013D300000000000000000000000000000000000A
:1013E30000000000000000000000000000000000FA
:1013F300FFAAAAAA280800FF0000000000000000BE
:1014030000000000000000000000000000000000D9
:10141300000000000000000000000000007F030C3B
:10142300300C037F0000264949493200007F020443
:0414330008107F001E
:0B2658007FD07E071226637FD07E0734
:10266300D3EF9400EE940040147D6E7C00ED1D705A
:0D267300011CED4C70F7EF1F70E61E80E3B8
:012680002237
:09279700D2A4D2A5C2A5C2A4225D
:0927A000C2A4C2A5D2A4D2A52254
:07268100AD071227977F78D7
:10268800E4FEEF30E704D2A58002C2A5D2A4C2A41A
:0F269800EF25E0FF0EEEB408E9D2A5D2A4C2A44C
:0126A7002210
:0D271B00741F2BF58274003AF583E493FFE0
:102728001226817F40122688AF051226880227A02C
:10262D00AC05AB07EC131313541F7E0024B0FF123F
:0B263D002648EB54F0C4540F4410FF7B
:10264800122681E4FF122688AF051226880227A0E9
:06277100E0FFA3A3E0FD60
:10277700AC07ED24B0FF122648EC122640EC540FAC
:04278700FF022648DF
:1027380012262DEB540FFF122648EC5407FF7401A4
:0D274800A807088002C333D8FCFF02272831
:1027550012262DEB540FFF122648EC5407FFE4A870
:0C27650007088002C333D8FCFF022728BD
:0226A800AC077D
:1026AA00E4FBEB24B0FF122648E4FF1226487F1011
:1026BA00122648E4FAAF041227280AEAB480F60B75
:0426CA00EBB408DE87
:0126CE0022E9
:1026F600E4FCEC24B0FF1226487F011226487F1026
:10270600122648E4FBE4FF1227280BEBB480F60CF4
:04271600ECB408DE39
:01271A00229C
:1024A6007FF47E011226637FAE122648E4FF1226D1
:1024B600487F101226487F401226487F8112264800
:1024C6007FCF1226487FA11226487FC81226487F52
:1024D600A61226487FA81226487F3F1226487FD399
:1024E600122648E4FF1226487FD51226487F80121E
:1024F60026487FD91226487FF11226487FDA12260F
:10250600487F121226487FDB1226487F4012264853
:102516007F201226487F021226487F8D1226487F8A
:10252600141226487FA41226487FA61226487FAF9B
:0E253600122648E4FF1226A8E4FDFF022777D4
:0C2544007A0079037BFF7D057C007F0F8F
:10255000900056EFF0A3ECF0A3EDF0A3EBF0A3EAAC
:04256000F0A3E9F00B
:10256400E4A3F0FCA3F0900059E0FBA3E0FAA3E09D
:10257400F990005DE0F58275830012218D60582486
:10258400E090005CF0900056E0D3947E4010E4F0BC
:10259400900058E004F07006900057E004F09000BA
:1025A40056122771E4FC90005CE075F006A4241F29
:1025B400F582E5F03404F583E5822CF582E4358375
:1025C4001227230CECB406DE900056E02406F090AB
:0725D400005DE004F0808FC0
:0125DB0022DD
:1023E50090007EEFF0A3ECF0A3EDF0A3EBF0A3EAF1
:0423F500F0A3E9F078
:1023F900E4A3F0FCA3F0900081E0FBA3E0FAA3E0E2
:10240900F9900085E0F58275830012218D70030231
:1024190024A524E0900084F090007EE0D3947840D5
:1024290010E4F0900080E004F0700690007FE00472
:10243900F090007E122771E4FC900084E075F010A2
:10244900A42CF582E435F0F583E5822447F582E58D
:102459008334061227230CECB408DE90007EE0FFDB
:10246900A3A3E004FD122777E4FC900084E075F053
:1024790010A42CF582E435F0F583E582244FF5822A
:10248900E58334061227230CECB408DE90007EE0C5
:0C2499002408F0900085E004F00223FF0E
:0124A5002214
:0A25DC00900086ECF0A3EDF0A907D3
:1025E600E4FCAE02EB7805C333CE33CED8F9FBAAB2
:1025F60006AF01900086A3E0FD122777E4FC1227C0
:102606001B0BBB00010A0CECB410F3AF0190008663
:10261600A3E004FD122777E4FC12271B0BBB000185
:062626000A0CECB410F3F5
:01262C00228B
:10231C00900056EFF0A3ECF0A3EDF0A3EAF0A3EBE2
:01232C00F0C0
:10232D00E4900060F0A3F090005BE0FAA3E0FB7C8A
:10233D00007D08FFAE021221BAED4C7011FC7D0834
:10234D00AF03AE021221BA900063EFF0801590003A
:10235D005BE0FEA3E0FF7C007D081221BAEF049044
:10236D000063F0900057A3E0900063F0900063E0ED
:10237D00FDFFD390005CE09F7480F890005BE064FB
:10238D0080984053900056E0FF122777E09000624E
:10239D00F0900062E0FFD390005AE09F7480F890B7
:1023AD000059E0648098402790005DE0FBA3E0FABF
:1023BD00A3E0F9A3E475F0011221F085F082F58315
:1023CD0012218DFF122728900062E004F080C29048
:0723DD000063E004F08095AD
:0123E40022D6
:0927A900C2B2C2B3C2B1C2B02237
:061FC6007E007D007C009E
:061FCC00900056122219DC
:101FD20090005AE0FCA3E0FDA3E0FEA3E0FF900026
:101FE20062122219D2B2D2B1900056E0FCA3E0FDF7
:101FF200A3E0FEA3E0FF90005E122219E4FBC2B34D
:10200200D2B0C2B00BEBB403F5C2B3D2B0C2B0D2FD
:10201200B3D2B0C2B0E4FB90005EE0FCA3E0FDA34B
:10202200E0FEA3E0FFA803122206EF5408FFEF240C
:10203200FF92B3D2B0C2B00BEBB404DB90005EA34C
:10204200A3A3E05401FFEF24FF92B3D2B0C2B0C207
:10205200B192B3D2B0C2B0D2B1900056E0FCA3E0CC
:10206200FDA3E0FEA3E0FF90005E122219E4FBC292
:10207200B3D2B0C2B00BEBB402F5900062E0FCA3A5
:10208200E0FDA3E0FEA3E0FF7900780012220690B3
:10209200006212221990005E122219E4FB90005E87
:1020A200E0FCA3E0FDA3E0FEA3E0FFA803122206EA
:1020B200EC548024FF92B3D2B0C2B00BEBB408DD73
:1020C200900062E0FCA3E0FDA3E0FEA3E0FF78083D
:1020D20012220690005E122219E4FB90005EE0FCE0
:1020E200A3E0FDA3E0FEA3E0FFA803122206EC5446
:1020F2008024FF92B3D2B0C2B00BEBB408DD9000E3
:1021020062E0FCA3E0FDA3E0FEA3E0FF7810122250
:102112000690005E122219E4FB90005EE0FCA3E050
:10212200FDA3E0FEA3E0FFA803122206EC548024E4
:10213200FF92B3D2B0C2B00BEBB408DD900062E004
:10214200FCA3E0FDA3E0FEA3E0FF781812220690B4
:10215200005E122219E4FB90005EE0FCA3E0FDA306
:10216200E0FEA3E0FFA803122206EC548024FF92B3
:10217200B3D2B0C2B00BEBB408DDC2B3D2B0C2B0BE
:0A218200C2B1C2B3D2B0C2B0D2B1F4
:01218C002230
:1014370090000012222500000000900004122225CF
:101447000000000190000812222500000002900011
:101457000C122225FFFFFFFF9000101222250BCF51
:10146700AAAA90001412222500000000900018126A
:1014770022258010101090001C1222250000000168
:1014870090002CE4F0A304F0E4A3F0A3F0A3F0A3EE
:10149700F0A3F0A3F0A3F0A3F0A3F0A304F01224A9
:1014A700A690005BE4F0A37407F0A374FFF0A374A5
:1014B7000CF0A37437F07B807A00E4FDFCFF122365
:1014C7001C12265812265812265F1224A61227A984
:1014D7001225447BFF7A0079057D0212254C7BFF9C
:1014E7007A0079087D027C007F4412255030930CE6
:1014F70030940930910630920302168530930C30F0
:101507009409309106309203021666209472309443
:10151700FD90002DE004F0700690002CE004F0C36D
:1015270090002DE0940190002CE064809480500698
:10153700E4F0A37402F0D390002DE0940290002C05
:10154700E0648094804005E4F0A304F090002CE070
:10155700FEA3E0FFEE7029EF24FE600E0470211257
:1015670025447BFF7A00790B800D7A00790B1225D1
:10157700487BFF7A0079037D057C007F4412255064
:101587002093723093FD90002DE024FFF090002C03
:10159700E034FFF0C3A3E0940190002CE064809452
:1015A700805006E4F0A37402F0D390002DE094027B
:1015B70090002CE0648094804005E4F0A304F09050
:1015C700002CE0FEA3E0FFEE702BEF24FE600E047C
:1015D70070231225447BFF7A00790B800F7BFF7AFB
:1015E70000790B12254A7BFF7A0079037D057C0081
:1015F7007F441225502091343091FD90002CE0FE5D
:10160700A3E0FFEE7026EF24FE601304701E900027
:1016170035E004F07016900034E004F0800E90007E
:1016270037E004F07006900036E004F02092303086
:1016370092FD90002CE0FEA3E0FFEE7022EF24FE67
:10164700600F04701A900035E024FFF0900034809A
:101657000A900037E024FFF0900036E034FFF09066
:10166700002EE07002A3E070157BFF7A00790DFD74
:10167700FC7F3C12255090002EE4F0A304F0C390A9
:101687000034E0648094805006E4F0A3743FF0D304
:10169700900035E0943F900034E0648094804004EB
:1016A700E4F0A3F0C3900036E0648094805006E431
:1016B700F0A3743FF0D3900037E0943F900036E0FA
:1016C700648094804004E4F0A3F090005974FFF024
:1016D700A37400F0A37411F0900034E0FFA3E0902E
:1016E700005CCFF0A3EFF07B017A00794C121CC6A7
:1016F7007B017A00794C7D0412254C90005974FFC8
:10170700F0A37400F0A37415F0900024E0FCA3E0AC
:10171700FDA3E0FEA3E0FF90005C1222197B017A93
:1017270000794C121CC67B017A00794C7D06122584
:101737004C90005974FFF0A37400F0A37411F0905B
:101747000036E0FFA3E090005CCFF0A3EFF07B0151
:101757007A00794C121CC67B017A00794C7D047C97
:10176700007F4412255090005974FFF0A37400F0D5
:10177700A37415F0900028E0FCA3E0FDA3E0FEA30E
:10178700E0FF90005C1222197B017A00794C121C51
:10179700C67B017A00794C7D067C007F4412255078
:1017A700900034E0FEA3E0FF7C007D021221BAED39
:1017B7004C7005FE7F0180047E007F00EF25E0FB73
:1017C700EE33FA900034E0FEA3E0FF7C007D0212C6
:1017D70021BAED2BFBEC3AFA900034E0FEA3E0FFD0
:1017E7007C007D021221BA7C007D021221BAEDAE87
:1017F700047802C333CE33CED8F92BFBEA3EFAED99
:101807004C7005FE7F0180047E007F00EF7803C3E4
:1018170033CE33CED8F92BFBEA3EFA900034E0FE04
:10182700A3E0FF7C007D041221BA7C007D02122117
:10183700BAEDC4F8540FC868FFECC454F048FEEB87
:101847002FFBEA3EFAED4C7005FE7F0180047E0017
:101857007F00EF7805C333CE33CED8F92BFBEA3EB2
:10186700FA900034E0FEA3E0FF7C007D081221BA65
:101877007C007D021221BAEDAE047806C333CE3365
:10188700CED8F92BFBEA3EFAED4C7005FE7F0180BE
:10189700047E007F00EF7807C333CE33CED8F92B11
:1018A700FBEA3EFA900034E0FEA3E0FF7C007D10E7
:1018B7001221BA7C007D021221BAED7F00FEEF2BC8
:1018C700FBEA3EFAED4C70030F80027F00EF7F00CA
:1018D70025E0FEEF2BFBEA3EFA900034E0FEA3E0A2
:1018E700FF7C007D201221BA7C007D021221BAED17
:1018F7007F0025E025E0FEEF2BFBEA3EFAED4C707A
:10190700030F80027F00EF7F0033333354F8FEEF7D
:101917002BFFEA3EFE3395E0FDFC900024122219CE
:10192700900036E0FEA3E0FF7C007D021221BAEDB5
:101937004C7005FE7F0180047E007F00EF25E0FBF1
:10194700EE33FA900036E0FEA3E0FF7C007D021242
:1019570021BAED2BFBEC3AFA900036E0FEA3E0FF4C
:101967007C007D021221BA7C007D021221BAEDAE05
:10197700047802C333CE33CED8F92BFBEA3EFAED17
:101987004C7005FE7F0180047E007F00EF7803C363
:1019970033CE33CED8F92BFBEA3EFA900036E0FE81
:1019A700A3E0FF7C007D041221BA7C007D02122196
:1019B700BAEDC4F8540FC868FFECC454F048FEEB06
:1019C7002FFBEA3EFAED4C7005FE7F0180047E0096
:1019D7007F00EF7805C333CE33CED8F92BFBEA3E31
:1019E700FA900036E0FEA3E0FF7C007D081221BAE2
:1019F7007C007D021221BAEDAE047806C333CE33E4
:101A0700CED8F92BFBEA3EFAED4C7005FE7F01803C
:101A1700047E007F00EF7807C333CE33CED8F92B8F
:101A2700FBEA3EFA900036E0FEA3E0FF7C007D1063
:101A37001221BA7C007D021221BAED7F00FEEF2B46
:101A4700FBEA3EFAED4C70030F80027F00EF7F0048
:101A570025E0FEEF2BFBEA3EFA900036E0FEA3E01E
:101A6700FF7C007D201221BA7C007D021221BAED95
:101A77007F0025E025E0FEEF2BFBEA3EFAED4C70F8
:101A8700030F80027F00EF7F0033333354F8FEEFFC
:101A97002BFFEA3EFE3395E0FDFC90002812221949
:101AA700900028E0FCA3E0FDA3E0FEA3E0FF780C94
:101AB700122206900024E0F8A3E0F9A3E0FAA3E0DD
:101AC7002FFFEA3EFEE93DFDE83CFCE42FFFE43E44
:101AD700FEE43DFDEC34FFFC900000122219309526
:101AE700030214F43095FD7BFF7A00791BE4FDFCBB
:101AF7007F3C122550E490002EF0A3F0C2B1C2B291
:101B07007FC8FE122663D2B1D2B2900000E0FCA3D8
:101B1700E0FDA3E0FEA3E0FF90005A1222197F0028
:101B2700121FC6900004E0FCA3E0FDA3E0FEA3E0C3
:101B3700FF90005A1222197F01121FC6900008E079
:101B4700FCA3E0FDA3E0FEA3E0FF90005A122219D8
:101B57007F02121FC690000CE0FCA3E0FDA3E0FE8D
:101B6700A3E0FF90005A1222197F03121FC69000AC
:101B770010E0FCA3E0FDA3E0FEA3E0FF90005A12F3
:101B870022197F04121FC6900014E0FCA3E0FDA3F6
:101B9700E0FEA3E0FF90005A1222197F05121FC62C
:101BA700900018E0FCA3E0FDA3E0FEA3E0FF900097
:101BB7005A1222197F06121FC690001CE0FCA3E0F0
:101BC700FDA3E0FEA3E0FF90005A1222197F07123F
:101BD7001FC67B107A00E4900032F0A3F090003229
:101BE700E0FEA3E0FFC39408EE648094805026EBE8
:101BF700AE02A807088005C333CE33CED8F9339297
:101C0700B3D2B0C2B0900033E004F070D09000328D
:101C1700E004F080C8D2B3D2B0C2B0D2B3D2B0C25F
:101C2700B0C2B1D2B3D2B0C2B0D2B1E4900032F0F8
:101C3700A3F0D2B0C2B0900033E004F07006900079
:101C470032E004F0900032E07004A3E0646470E2D4
:0A1C57007FC87E001226630214F419
:10218D00BB010CE58229F582E5833AF583E0225007
:10219D0006E92582F8E622BBFE06E92582F8E22251
:0D21AD00E58229F582E5833AF583E493226B
:1021BA00C2D5EC30E709B2D5E4C39DFDE49CFCEE40
:1021CA0030E715B2D5E4C39FFFE49EFE122281C315
:1021DA00E49DFDE49CFC800312228130D507C3E410
:0621EA009FFFE49EFE22AF
:1021F000A3F8E0C5F025F0F0E582158270021583A2
:06220000E0C838F0E822FE
:10220600E8600FEFC333FFEE33FEED33FDEC33FC36
:03221600D8F122DA
:0C221900ECF0A3EDF0A3EEF0A3EFF02238
:10222500A8828583F0D083D08212223C12223C12F0
:10223500223C12223CE473E493A3C583C5F0C58315
:10224500C8C582C8F0A3C583C5F0C583C8C582C803
:012255002266
:101C6100E5082459F582E43400F583E00508229063
:101C71000056300703900059E475F0011222D60294
:101C810022562000E97F2ED2008018EF540F2490B5
:101C9100D43440D4FF30040BEF24BFB41A005003F6
:101CA1002461FFE50960021509050CE50C700205C8
:101CB1000B30070E900056E475F0011222D6EF02A8
:101CC100226F0226CF7403D2078003E4C207F5080E
:101CD1009000561222EDE4F509F50BF50CE50960CB
:101CE100077F20121CA480F5750AFFC201C200C241
:101CF10002C203C205C206C208121C70FF700D3079
:101D010007057F00121CB5AF0CAE0B22B4255FC2D4
:101D1100D5C204121C70FF24D0B40A00501A75F009
:101D21000A780930D50508B6FF0106C6A426F620B3
:101D3100D5047002D20380D924CFB41A00EF500425
:101D4100C2E5D204021EB6D20180C6D20080C0D242
:101D51000280BCD2D580BAD20580B47F20121CA4E7
:101D61002002077401B5090040F1121C61FF121C29
:101D7100A4021CDED208D2068095121C61FB121C43
:101D810061FA121C61F94A4B700679877A1F7BFF51
:101D910020022EE509602A7E008E827583001221C1
:101DA1008D60060EEE650A70F0C2D5EBC0E0EAC0A8
:101DB100E0E9C0E0EE121EFDD0E0F9D0E0FAD0E09B
:101DC100FB122256FF60AAEBC0E0EAC0E0E9C0E0E6
:101DD100121CA4D0E02401F9D0E03400FAD0E0FBD9
:101DE100E50A0460DCD50AD980877BFF7A1E79F980
:101DF100D202809C791080027908C206C20880084C
:101E0100D2D5790A8004790AC2D5E50A047002F5AF
:101E11000AE4FAFDFEFF121C61FC7B08200113128B
:101E21001C61FD7B1030000A121C61FE121C61FF57
:101E31007B20EC3382D592D55013C3E43000069F4A
:101E4100FFE49EFEE42001039DFDE49CFCE4CBF84D
:101E5100C201EC700CCFCECDCCE824F8F870F38041
:101E610017C3EF33FFEE33FEED33FDEC33FCEB3301
:101E7100FB994002FB0FD8E9EB300105F8D0E0C433
:101E810048B201C0E00AEC4D4E4F78207B0070C291
:101E9100EAB50A0040BCC0E0121EFFD0F0D0E0203D
:101EA1000104C4C0E0C4B201C0F0121C8DD0F0D551
:101EB100F0EB021CDE1222F61D7B531DF5581D4C62
:101EC1004C1D48421DF94F1E01441E01491D61432D
:081ED1001E07551DEB461DEB39
:101ED900451DEB471FA7501D502D1D542E1D772B57
:101EE9001D58231D75201F902A1D104800001D6FC5
:101EF9003F3F3F00790AA2D5200314300509B910E4
:101F0900020404B9080104A2D520060250010420E4
:101F190002689202B509005034C0E07F20300319ED
:101F29007F30A20272067205500F121F56C202C2FA
:101F390006C205C2087F30800F300503E9C0E012F0
:101F49001CA4300503D0E0F9D0E0B509CC30051761
:101F59007F30B9100C121CA47F583004077F788099
:101F690003B90803121CA43002057F2D021CA47FAB
:101F7900202008F87F2B2006F322920280CF286EBA
:101F8900756C6C2900D201121C613001F8C201780C
:101F99000930D50108F6021D102D50434958121C6D
:101FA900612403B405004001E4901FA293121C951B
:0D1FB900743A121C95D203750904021DF53F
:10225600BB010689828A83E0225002E722BBFE0286
:09226600E32289828A83E49322B9
:10226F00BB010689828A83F0225002F722BBFE014E
:02227F00F32248
:10228100BC000BBE0029EF8DF084FFADF022E4CC41
:10229100F875F008EF2FFFEE33FEEC33FCEE9DEC0A
:1022A100984005FCEE9DFE0FD5F0E9E4CEFD22ED50
:1022B100F8F5F0EE8420D21CFEADF075F008EF2F9A
:1022C100FFED33FD4007985006D5F0F222C398FD8B
:0522D1000FD5F0EA2228
:1022D600F8E0FBA3A3E0F925F0F0E5821582700291
:0722E6001583E0FA38F02235
:0922ED00EBF0A3EAF0A3E9F022F2
:1022F600D083D082F8E4937012740193700DA3A377
:1023060093F8740193F5828883E47374029368608A
:06231600EFA3A3A380DF8A
:1026CF00EFB40A07740D1226DA740A309811A8991C
:1026DF00B8130CC2983098FDA899C298B811F6306B
:0726EF0099FDC299F5992243
:00000001FF
